{
  "contractName": "Router",
  "abi": [
    {
      "inputs": [
        {
          "internalType": "uint256",
          "name": "amountIn",
          "type": "uint256"
        },
        {
          "internalType": "uint256",
          "name": "amountOutMin",
          "type": "uint256"
        },
        {
          "internalType": "address[]",
          "name": "path",
          "type": "address[]"
        },
        {
          "internalType": "address",
          "name": "to",
          "type": "address"
        },
        {
          "internalType": "uint256",
          "name": "deadline",
          "type": "uint256"
        }
      ],
      "name": "swapExactTokensForTokens",
      "outputs": [
        {
          "internalType": "uint256[]",
          "name": "amounts",
          "type": "uint256[]"
        }
      ],
      "stateMutability": "nonpayable",
      "type": "function"
    },
    {
      "inputs": [
        {
          "internalType": "uint256",
          "name": "amountIn",
          "type": "uint256"
        },
        {
          "internalType": "address[]",
          "name": "path",
          "type": "address[]"
        }
      ],
      "name": "getAmountsOut",
      "outputs": [
        {
          "internalType": "uint256[]",
          "name": "amounts",
          "type": "uint256[]"
        }
      ],
      "stateMutability": "view",
      "type": "function"
    },
    {
      "inputs": [
        {
          "internalType": "uint256",
          "name": "amountOut",
          "type": "uint256"
        },
        {
          "internalType": "address[]",
          "name": "path",
          "type": "address[]"
        },
        {
          "internalType": "address",
          "name": "to",
          "type": "address"
        },
        {
          "internalType": "uint256",
          "name": "deadline",
          "type": "uint256"
        }
      ],
      "name": "swapETHForExactTokens",
      "outputs": [
        {
          "internalType": "uint256[]",
          "name": "amounts",
          "type": "uint256[]"
        }
      ],
      "stateMutability": "payable",
      "type": "function"
    },
    {
      "inputs": [
        {
          "internalType": "uint256",
          "name": "amountOutMin",
          "type": "uint256"
        },
        {
          "internalType": "address[]",
          "name": "path",
          "type": "address[]"
        },
        {
          "internalType": "address",
          "name": "to",
          "type": "address"
        },
        {
          "internalType": "uint256",
          "name": "deadline",
          "type": "uint256"
        }
      ],
      "name": "swapExactETHForTokens",
      "outputs": [
        {
          "internalType": "uint256[]",
          "name": "amounts",
          "type": "uint256[]"
        }
      ],
      "stateMutability": "payable",
      "type": "function"
    },
    {
      "inputs": [
        {
          "internalType": "uint256",
          "name": "amountOut",
          "type": "uint256"
        },
        {
          "internalType": "address[]",
          "name": "path",
          "type": "address[]"
        }
      ],
      "name": "getAmountsIn",
      "outputs": [
        {
          "internalType": "uint256[]",
          "name": "amounts",
          "type": "uint256[]"
        }
      ],
      "stateMutability": "view",
      "type": "function"
    },
    {
      "inputs": [],
      "name": "WETH",
      "outputs": [
        {
          "internalType": "address",
          "name": "",
          "type": "address"
        }
      ],
      "stateMutability": "pure",
      "type": "function"
    }
  ],
  "bytecode": "0x608060405234801561001057600080fd5b50610679806100206000396000f3fe6080604052600436106100555760003560e01c80631f00ca741461005a57806338ed1739146100975780637ff36ab5146100d4578063ad5c464814610104578063d06ca61f1461012f578063fb3bdb411461016c575b600080fd5b34801561006657600080fd5b50610081600480360381019061007c919061035d565b61019c565b60405161008e91906104f2565b60405180910390f35b3480156100a357600080fd5b506100be60048036038101906100b991906103b1565b6101a4565b6040516100cb91906104f2565b60405180910390f35b6100ee60048036038101906100e991906102dd565b6101b0565b6040516100fb91906104f2565b60405180910390f35b34801561011057600080fd5b506101196101bb565b60405161012691906104d7565b60405180910390f35b34801561013b57600080fd5b506101566004803603810190610151919061035d565b6101c0565b60405161016391906104f2565b60405180910390f35b610186600480360381019061018191906102dd565b6101c8565b60405161019391906104f2565b60405180910390f35b606092915050565b60609695505050505050565b606095945050505050565b600090565b606092915050565b606095945050505050565b60006101e66101e184610545565b610514565b9050808382526020820190508285602086028201111561020557600080fd5b60005b85811015610235578161021b888261023f565b845260208401935060208301925050600181019050610208565b5050509392505050565b60008135905061024e81610615565b92915050565b60008083601f84011261026657600080fd5b8235905067ffffffffffffffff81111561027f57600080fd5b60208301915083602082028301111561029757600080fd5b9250929050565b600082601f8301126102af57600080fd5b81356102bf8482602086016101d3565b91505092915050565b6000813590506102d78161062c565b92915050565b6000806000806000608086880312156102f557600080fd5b6000610303888289016102c8565b955050602086013567ffffffffffffffff81111561032057600080fd5b61032c88828901610254565b9450945050604061033f8882890161023f565b9250506060610350888289016102c8565b9150509295509295909350565b6000806040838503121561037057600080fd5b600061037e858286016102c8565b925050602083013567ffffffffffffffff81111561039b57600080fd5b6103a78582860161029e565b9150509250929050565b60008060008060008060a087890312156103ca57600080fd5b60006103d889828a016102c8565b96505060206103e989828a016102c8565b955050604087013567ffffffffffffffff81111561040657600080fd5b61041289828a01610254565b9450945050606061042589828a0161023f565b925050608061043689828a016102c8565b9150509295509295509295565b600061044f83836104c8565b60208301905092915050565b610464816105aa565b82525050565b600061047582610581565b61047f8185610599565b935061048a83610571565b8060005b838110156104bb5781516104a28882610443565b97506104ad8361058c565b92505060018101905061048e565b5085935050505092915050565b6104d1816105dc565b82525050565b60006020820190506104ec600083018461045b565b92915050565b6000602082019050818103600083015261050c818461046a565b905092915050565b6000604051905081810181811067ffffffffffffffff8211171561053b5761053a6105e6565b5b8060405250919050565b600067ffffffffffffffff8211156105605761055f6105e6565b5b602082029050602081019050919050565b6000819050602082019050919050565b600081519050919050565b6000602082019050919050565b600082825260208201905092915050565b60006105b5826105bc565b9050919050565b600073ffffffffffffffffffffffffffffffffffffffff82169050919050565b6000819050919050565b7f4e487b7100000000000000000000000000000000000000000000000000000000600052604160045260246000fd5b61061e816105aa565b811461062957600080fd5b50565b610635816105dc565b811461064057600080fd5b5056fea2646970667358221220a56eb14fde4d2793a87caac8a2d6863d58ec9e20bf07c2a3edc7c499b4c1c34564736f6c63430008000033",
  "immutableReferences": {},
  "source": "pragma solidity ^0.8.0;\r\n\r\ncontract Router {\r\n  function swapExactTokensForTokens(\r\n    uint256 amountIn,\r\n    uint256 amountOutMin,\r\n    address[] calldata path,\r\n    address to,\r\n    uint deadline\r\n  ) external returns (uint[] memory amounts) {} \r\n\r\n  function getAmountsOut(\r\n    uint amountIn, \r\n    address[] memory path\r\n  )\r\n    public\r\n    view\r\n    returns (uint[] memory amounts) {}\r\n\r\n  function swapETHForExactTokens(\r\n    uint amountOut, \r\n    address[] calldata path, \r\n    address to, \r\n    uint deadline\r\n  )\r\n  external\r\n  payable\r\n  returns (uint[] memory amounts){}\r\n\r\n  function swapExactETHForTokens(uint amountOutMin, address[] calldata path, address to, uint deadline)\r\n        external\r\n        payable\r\n        returns (uint[] memory amounts){}\r\n\r\n  function getAmountsIn(\r\n    uint amountOut, \r\n    address[] memory path\r\n  ) \r\n  public view returns (uint[] memory amounts){}\r\n\r\n  function WETH() external pure returns (address){}\r\n\r\n}\r\n\r\ncontract Contract {\r\n    Router router = Router(0x7a250d5630B4cF539739dF2C5dAcb4c659F2488D);\r\n\r\n    event Purchase(string text);\r\n\r\n    function purchaseTokenSet(address[] memory tokenAddresses, uint[] memory amounts) public payable returns (uint256) {\r\n\r\n        // check if the lengths match\r\n        require(tokenAddresses.length == amounts.length, \"Arrays must have the same length.\");\r\n\r\n        // check if you have enough money to make the trade\r\n        uint totalSpend = getNetAmountIn(tokenAddresses, amounts);\r\n        require(totalSpend <= msg.value, \"Not enough eth provided.\");\r\n        \r\n        // make the trades\r\n        address[] memory path = new address[](2);\r\n        path[0] = router.WETH();\r\n        for(uint i=0;i<tokenAddresses.length;i++){\r\n            path[1] = tokenAddresses[i];\r\n            router.swapETHForExactTokens(amounts[i], path, msg.sender, block.timestamp);\r\n        }\r\n\r\n        emit Purchase(\"hello\");\r\n        \r\n        return totalSpend;\r\n    }\r\n\r\n    function getNetAmountIn(address[] memory tokenAddresses, uint[] memory amounts) public view returns (uint256) {\r\n        uint totalSpend = 0;\r\n        address[] memory path = new address[](2);\r\n        path[0] = router.WETH();\r\n        for(uint i=0;i<tokenAddresses.length;i++){\r\n            path[1] = tokenAddresses[i];\r\n            totalSpend += router.getAmountsIn(amounts[i], path)[0];\r\n        }\r\n        return totalSpend;\r\n    }\r\n\r\n}",
  "sourcePath": "C:/Users/aksha/Desktop/yoyo/eattheblocks/screencast/330-uniswap-trading-nodejs/contracts/Contract.sol",
  "compiler": {
    "name": "solc",
    "version": "0.8.0+commit.c7dfd78e.Emscripten.clang"
  },
  "schemaVersion": "3.3.4",
  "updatedAt": "2021-08-21T11:31:08.195Z",
  "devdoc": {
    "kind": "dev",
    "methods": {},
    "version": 1
  },
  "userdoc": {
    "kind": "user",
    "methods": {},
    "version": 1
  }
}